:020000040000FA
:02000000532883
:040002000034003492
:08000800052820009012A20A55
:100010000310A40C230803192D28013A03191228F0
:10002000A3032D283100703092009101003085002B
:10003000303084001030F000000893004430950008
:1000400055309600AA309600951495182528910AE7
:10005000840AF00B1C282000A301001D3A28221E50
:10006000362821000C158E1420003A2821000C118E
:100070008E102000801D4728221E432821000E15C7
:100080000E142000472821000E110E102000001F22
:1000900052288D138E13221D502822188E17522895
:1000A00022188D170900200003308C008D018E016D
:1000B000A501A2018401A301FF30A400A100043026
:1000C0009F00FF309E009501FF3096009030980011
:1000D0008730970090122100FF308C007F308D0018
:1000E0008E00901623008C018D018E013C0055304E
:1000F0008F00AA308F000F103D000C30A600A30027
:100100009E000D309200A000A100A2000E309C00C5
:100110009D003C000F1425009F309300FF3091009C
:10012000203092009F309700FF30950020309600DD
:1001300026009F309300FF309100203092009F30C6
:100140009700FF309500FF309600200000308500BA
:10015000303084007030870086011030A000160017
:100160001A00A00BAF28C0308B003030A0000E1A50
:1001700020148E1AA0140C1A20158C1AA015200811
:1001800084002508031DC7280130A500D4288C1938
:10019000D0282408031DCF28800AFF30A30024158F
:1001A000210800060319B5280008A1008D138E133D
:1001B0002100FF308C007F308D008E002000001C5D
:1001C000E52821000C108C102000801CF22825004E
:1001D0002030920021000C110D130E130E118E1001
:1001E0000E102000001EF82821000D128D12200094
:1001F000801E022925008030920021000D130E136D
:100200008E112000B5280329500065007400650098
:1002100072002000530068006100620069006E00F7
:100220006F002000310035004A0055004C003200BC
:100230003000310036002000540072006100690077
:100240006E0020004C0069006700680074006900BF
:100250006E00670020005600300030002E00300095
:0202600032006A
:020000040001F9
:02000E00EC3FC5
:02001000D037E7
:02001200FF1FCE
:02001400FF3FAC
:10E000000000000000000000000000000000000010
:10E010000000400020001000080004000300FF0082
:00000001FF
